{
  "contractName": "LiquidityPool",
  "abi": [
    {
      "inputs": [
        {
          "internalType": "address",
          "name": "_tokenAddress",
          "type": "address"
        }
      ],
      "stateMutability": "nonpayable",
      "type": "constructor"
    },
    {
      "anonymous": false,
      "inputs": [
        {
          "indexed": false,
          "internalType": "address",
          "name": "_investor",
          "type": "address"
        },
        {
          "indexed": false,
          "internalType": "uint256",
          "name": "_amount",
          "type": "uint256"
        },
        {
          "indexed": false,
          "internalType": "uint256",
          "name": "_tokens",
          "type": "uint256"
        }
      ],
      "name": "AmountInvested",
      "type": "event"
    },
    {
      "inputs": [
        {
          "internalType": "address",
          "name": "_tokenAddress",
          "type": "address"
        }
      ],
      "name": "setTokenAddress",
      "outputs": [],
      "stateMutability": "nonpayable",
      "type": "function"
    },
    {
      "inputs": [
        {
          "internalType": "uint256",
          "name": "amount",
          "type": "uint256"
        }
      ],
      "name": "borrow",
      "outputs": [],
      "stateMutability": "nonpayable",
      "type": "function"
    },
    {
      "inputs": [],
      "name": "invest",
      "outputs": [],
      "stateMutability": "payable",
      "type": "function",
      "payable": true
    },
    {
      "inputs": [
        {
          "internalType": "uint256",
          "name": "amount",
          "type": "uint256"
        }
      ],
      "name": "redeem",
      "outputs": [],
      "stateMutability": "payable",
      "type": "function",
      "payable": true
    }
  ],
  "bytecode": "0x60806040523480156200001157600080fd5b5060405162000d3e38038062000d3e833981810160405281019062000037919062000152565b600073ffffffffffffffffffffffffffffffffffffffff163373ffffffffffffffffffffffffffffffffffffffff161415620000aa576040517f08c379a0000000000000000000000000000000000000000000000000000000008152600401620000a190620001ab565b60405180910390fd5b33600360006101000a81548173ffffffffffffffffffffffffffffffffffffffff021916908373ffffffffffffffffffffffffffffffffffffffff16021790555080600160006101000a81548173ffffffffffffffffffffffffffffffffffffffff021916908373ffffffffffffffffffffffffffffffffffffffff160217905550600a600281905550506200025a565b6000815190506200014c8162000240565b92915050565b6000602082840312156200016b576200016a62000212565b5b60006200017b848285016200013b565b91505092915050565b600062000193602083620001cd565b9150620001a08262000217565b602082019050919050565b60006020820190508181036000830152620001c68162000184565b9050919050565b600082825260208201905092915050565b6000620001eb82620001f2565b9050919050565b600073ffffffffffffffffffffffffffffffffffffffff82169050919050565b600080fd5b7f4f776e65722063616e6e6f7420626520746865204e554c4c2061646472657373600082015250565b6200024b81620001de565b81146200025757600080fd5b50565b610ad4806200026a6000396000f3fe60806040526004361061003f5760003560e01c806326a4e8d214610044578063c5ebeaec1461006d578063db006a7514610096578063e8b5e51f146100b2575b600080fd5b34801561005057600080fd5b5061006b60048036038101906100669190610597565b6100bc565b005b34801561007957600080fd5b50610094600480360381019061008f91906105f1565b610190565b005b6100b060048036038101906100ab91906105f1565b610193565b005b6100ba6102ba565b005b600360009054906101000a900473ffffffffffffffffffffffffffffffffffffffff1673ffffffffffffffffffffffffffffffffffffffff163373ffffffffffffffffffffffffffffffffffffffff161461014c576040517f08c379a000000000000000000000000000000000000000000000000000000000815260040161014390610793565b60405180910390fd5b80600160006101000a81548173ffffffffffffffffffffffffffffffffffffffff021916908373ffffffffffffffffffffffffffffffffffffffff16021790555050565b50565b60008060003373ffffffffffffffffffffffffffffffffffffffff1673ffffffffffffffffffffffffffffffffffffffff16815260200190815260200160002054905060008211610219576040517f08c379a000000000000000000000000000000000000000000000000000000000815260040161021090610813565b60405180910390fd5b6000811161025c576040517f08c379a0000000000000000000000000000000000000000000000000000000008152600401610253906107d3565b60405180910390fd5b60008260025461026c9190610844565b90503373ffffffffffffffffffffffffffffffffffffffff166108fc829081150290604051600060405180830381858888f193505050501580156102b4573d6000803e3d6000fd5b50505050565b600034905060008111610302576040517f08c379a00000000000000000000000000000000000000000000000000000000081526004016102f9906107f3565b60405180910390fd5b806000803373ffffffffffffffffffffffffffffffffffffffff1673ffffffffffffffffffffffffffffffffffffffff1681526020019081526020016000206000828254019250508190555060006002548261035e9190610844565b90506000600160009054906101000a900473ffffffffffffffffffffffffffffffffffffffff1673ffffffffffffffffffffffffffffffffffffffff166370a0823160006040518263ffffffff1660e01b81526004016103be9190610718565b60206040518083038186803b1580156103d657600080fd5b505afa1580156103ea573d6000803e3d6000fd5b505050506040513d601f19601f8201168201806040525081019061040e919061061e565b905081811015610453576040517f08c379a000000000000000000000000000000000000000000000000000000000815260040161044a906107b3565b60405180910390fd5b600160009054906101000a900473ffffffffffffffffffffffffffffffffffffffff1673ffffffffffffffffffffffffffffffffffffffff1663a9059cbb33846040518363ffffffff1660e01b81526004016104b0929190610733565b602060405180830381600087803b1580156104ca57600080fd5b505af11580156104de573d6000803e3d6000fd5b505050506040513d601f19601f8201168201806040525081019061050291906105c4565b507f439783b54a724b55f4dbde3433f0f137364174b51b72fe139859e834d0b1a3003384846040516105369392919061075c565b60405180910390a1505050565b60008135905061055281610a59565b92915050565b60008151905061056781610a70565b92915050565b60008135905061057c81610a87565b92915050565b60008151905061059181610a87565b92915050565b6000602082840312156105ad576105ac610915565b5b60006105bb84828501610543565b91505092915050565b6000602082840312156105da576105d9610915565b5b60006105e884828501610558565b91505092915050565b60006020828403121561060757610606610915565b5b60006106158482850161056d565b91505092915050565b60006020828403121561063457610633610915565b5b600061064284828501610582565b91505092915050565b6106548161089e565b82525050565b6000610667602583610833565b91506106728261091a565b604082019050919050565b600061068a601f83610833565b915061069582610969565b602082019050919050565b60006106ad603083610833565b91506106b882610992565b604082019050919050565b60006106d0601783610833565b91506106db826109e1565b602082019050919050565b60006106f3602a83610833565b91506106fe82610a0a565b604082019050919050565b610712816108dc565b82525050565b600060208201905061072d600083018461064b565b92915050565b6000604082019050610748600083018561064b565b6107556020830184610709565b9392505050565b6000606082019050610771600083018661064b565b61077e6020830185610709565b61078b6040830184610709565b949350505050565b600060208201905081810360008301526107ac8161065a565b9050919050565b600060208201905081810360008301526107cc8161067d565b9050919050565b600060208201905081810360008301526107ec816106a0565b9050919050565b6000602082019050818103600083015261080c816106c3565b9050919050565b6000602082019050818103600083015261082c816106e6565b9050919050565b600082825260208201905092915050565b600061084f826108dc565b915061085a836108dc565b9250817fffffffffffffffffffffffffffffffffffffffffffffffffffffffffffffffff0483118215151615610893576108926108e6565b5b828202905092915050565b60006108a9826108bc565b9050919050565b60008115159050919050565b600073ffffffffffffffffffffffffffffffffffffffff82169050919050565b6000819050919050565b7f4e487b7100000000000000000000000000000000000000000000000000000000600052601160045260246000fd5b600080fd5b7f4f6e6c7920746865206f776e65722063616e2063616c6c20746869732066756e60008201527f6374696f6e000000000000000000000000000000000000000000000000000000602082015250565b7f496e73756666696369656e742062616c616e6365206f6620746f6b656e732e00600082015250565b7f54686973206164647265737320646964206e6f7420696e7665737420616e792060008201527f45544820776974682074686973204c5000000000000000000000000000000000602082015250565b7f416d6f756e7420696e766573746564206973207a65726f000000000000000000600082015250565b7f54686520616d6f756e7420746f2062652072656465656d6564206d757374206260008201527f6520706f73697469766500000000000000000000000000000000000000000000602082015250565b610a628161089e565b8114610a6d57600080fd5b50565b610a79816108b0565b8114610a8457600080fd5b50565b610a90816108dc565b8114610a9b57600080fd5b5056fea2646970667358221220553e8ffe0f6f49b49460cce92665100d220b702eec81c5facd23d7259fc1ba4f64736f6c63430008060033",
  "immutableReferences": {},
  "source": "// SPDX-License-Identifier: MIT\n\npragma solidity ^0.8.6;\n\nimport \"./RToken.sol\";\n\ncontract LiquidityPool {\n\n   /**\n    * Contains the address list and the invested amount in Tokens\n    */\n   mapping(address => uint256 ) private investors;\n\n   RToken private token;\n\n   uint256 private k;\n\n   address private owner;\n\n\n   event AmountInvested(address _investor, uint256 _amount, uint256 _tokens);\n\n   constructor(address _tokenAddress) {\n\n       require(msg.sender != 0x0000000000000000000000000000000000000000, \"Owner cannot be the NULL address\");\n       \n       owner = msg.sender;\n\n       token = RToken(_tokenAddress);\n\n       k = 10; // 10 tokens for 1 ETH\n\n      \n   }\n\n   modifier onlyOwner() {\n       require(msg.sender == owner, \"Only the owner can call this function\");\n       _;\n   }\n\n   function setTokenAddress(address _tokenAddress) external onlyOwner() {\n       token = RToken(_tokenAddress);\n   }\n\n\n   function borrow(uint256 amount) external {\n\n   }\n\n   /**\n    * Invest the specified token and amount in this pool.\n    */\n   function invest() payable external {\n\n      uint256 amount = msg.value;\n\n      require( amount > 0 , \"Amount invested is zero\");\n\n      unchecked {\n\n          investors[msg.sender] += amount;\n          \n      }\n\n      // Amount of tokens\n      uint256 tokens_amount = amount * k;\n\n      uint256 current_balance = token.balanceOf(address(0));\n\n      require( current_balance >= tokens_amount, \"Insufficient balance of tokens.\");\n\n      token.transfer(msg.sender, tokens_amount);\n\n      emit AmountInvested(msg.sender, amount, tokens_amount);\n      \n     \n   }\n\n   /**\n    * Redeems the specified amount of tokens as ETH.\n    * This operation is possible if the caller has an account \n    * in this liquidity pool.\n    */\n   function redeem(uint256 amount) payable external {\n\n       uint256 eth_invested = investors[msg.sender];\n\n       require(amount > 0, \"The amount to be redeemed must be positive\");\n\n       require( eth_invested > 0, \"This address did not invest any ETH with this LP\");\n\n       uint256 eth_redeemed = k * amount;\n\n       payable(msg.sender).transfer(eth_redeemed);\n\n\n       \n   }\n\n\n}",
  "sourcePath": "/Users/max/Projects/RegulatedToken/contracts/LiquidityPool.sol",
  "compiler": {
    "name": "solc",
    "version": "0.8.6+commit.11564f7e.Emscripten.clang"
  },
  "schemaVersion": "3.4.1",
  "updatedAt": "2021-07-16T14:42:52.674Z",
  "networkType": "ethereum",
  "devdoc": {
    "kind": "dev",
    "methods": {},
    "version": 1
  },
  "userdoc": {
    "kind": "user",
    "methods": {
      "invest()": {
        "notice": "Invest the specified token and amount in this pool."
      },
      "redeem(uint256)": {
        "notice": "Redeems the specified amount of tokens as ETH. This operation is possible if the caller has an account  in this liquidity pool."
      }
    },
    "version": 1
  }
}