{
  "contractName": "LiquidityPool",
  "abi": [
    {
      "inputs": [
        {
          "internalType": "address",
          "name": "_tokenAddress",
          "type": "address"
        }
      ],
      "stateMutability": "payable",
      "type": "constructor",
      "payable": true
    },
    {
      "anonymous": false,
      "inputs": [
        {
          "indexed": false,
          "internalType": "address",
          "name": "_sender",
          "type": "address"
        },
        {
          "indexed": false,
          "internalType": "uint256",
          "name": "_eth",
          "type": "uint256"
        },
        {
          "indexed": false,
          "internalType": "uint256",
          "name": "_tokens",
          "type": "uint256"
        },
        {
          "indexed": false,
          "internalType": "bool",
          "name": "_eth_provided",
          "type": "bool"
        }
      ],
      "name": "LiquidityProvided",
      "type": "event"
    },
    {
      "inputs": [
        {
          "internalType": "address",
          "name": "_tokenAddress",
          "type": "address"
        }
      ],
      "name": "setTokenAddress",
      "outputs": [],
      "stateMutability": "nonpayable",
      "type": "function"
    },
    {
      "inputs": [
        {
          "internalType": "uint256",
          "name": "amount",
          "type": "uint256"
        }
      ],
      "name": "repay",
      "outputs": [],
      "stateMutability": "nonpayable",
      "type": "function"
    },
    {
      "inputs": [],
      "name": "invest",
      "outputs": [],
      "stateMutability": "payable",
      "type": "function",
      "payable": true
    },
    {
      "inputs": [
        {
          "internalType": "uint256",
          "name": "amount",
          "type": "uint256"
        }
      ],
      "name": "redeem",
      "outputs": [],
      "stateMutability": "payable",
      "type": "function",
      "payable": true
    },
    {
      "inputs": [
        {
          "internalType": "uint256",
          "name": "amount",
          "type": "uint256"
        }
      ],
      "name": "borrow",
      "outputs": [],
      "stateMutability": "nonpayable",
      "type": "function"
    },
    {
      "inputs": [],
      "name": "borrow",
      "outputs": [
        {
          "internalType": "uint256",
          "name": "",
          "type": "uint256"
        }
      ],
      "stateMutability": "payable",
      "type": "function",
      "payable": true
    },
    {
      "inputs": [
        {
          "internalType": "uint256",
          "name": "amount",
          "type": "uint256"
        }
      ],
      "name": "enterMarket",
      "outputs": [],
      "stateMutability": "nonpayable",
      "type": "function"
    },
    {
      "inputs": [
        {
          "internalType": "uint256",
          "name": "amount",
          "type": "uint256"
        }
      ],
      "name": "provideLiquidity",
      "outputs": [],
      "stateMutability": "payable",
      "type": "function",
      "payable": true
    }
  ],
  "bytecode": "0x608060405260405162000ca938038062000ca9833981810160405281019062000029919062000210565b600073ffffffffffffffffffffffffffffffffffffffff163373ffffffffffffffffffffffffffffffffffffffff1614156200009c576040517f08c379a000000000000000000000000000000000000000000000000000000000815260040162000093906200029b565b60405180910390fd5b33600460006101000a81548173ffffffffffffffffffffffffffffffffffffffff021916908373ffffffffffffffffffffffffffffffffffffffff16021790555080600260006101000a81548173ffffffffffffffffffffffffffffffffffffffff021916908373ffffffffffffffffffffffffffffffffffffffff1602179055506000600260009054906101000a900473ffffffffffffffffffffffffffffffffffffffff1673ffffffffffffffffffffffffffffffffffffffff166318160ddd6040518163ffffffff1660e01b815260040160206040518083038186803b1580156200018957600080fd5b505afa1580156200019e573d6000803e3d6000fd5b505050506040513d601f19601f82011682018060405250810190620001c4919062000242565b90503481620001d49190620002ce565b6003819055505050620003fe565b600081519050620001f381620003ca565b92915050565b6000815190506200020a81620003e4565b92915050565b6000602082840312156200022957620002286200039c565b5b60006200023984828501620001e2565b91505092915050565b6000602082840312156200025b576200025a6200039c565b5b60006200026b84828501620001f9565b91505092915050565b600062000283602083620002bd565b91506200029082620003a1565b602082019050919050565b60006020820190508181036000830152620002b68162000274565b9050919050565b600082825260208201905092915050565b6000620002db8262000363565b9150620002e88362000363565b9250817fffffffffffffffffffffffffffffffffffffffffffffffffffffffffffffffff04831182151516156200032457620003236200036d565b5b828202905092915050565b60006200033c8262000343565b9050919050565b600073ffffffffffffffffffffffffffffffffffffffff82169050919050565b6000819050919050565b7f4e487b7100000000000000000000000000000000000000000000000000000000600052601160045260246000fd5b600080fd5b7f4f776e65722063616e6e6f7420626520746865204e554c4c2061646472657373600082015250565b620003d5816200032f565b8114620003e157600080fd5b50565b620003ef8162000363565b8114620003fb57600080fd5b50565b61089b806200040e6000396000f3fe60806040526004361061007b5760003560e01c8063db006a751161004e578063db006a7514610124578063e68d356914610140578063e8b5e51f1461015e578063eb521a4c146101685761007b565b806326a4e8d214610080578063371fd8e6146100a95780635fed5bdb146100d2578063c5ebeaec146100fb575b600080fd5b34801561008c57600080fd5b506100a760048036038101906100a291906104fb565b610184565b005b3480156100b557600080fd5b506100d060048036038101906100cb9190610555565b610258565b005b3480156100de57600080fd5b506100f960048036038101906100f49190610555565b61025b565b005b34801561010757600080fd5b50610122600480360381019061011d9190610555565b61030e565b005b61013e60048036038101906101399190610555565b610311565b005b610148610314565b60405161015591906106da565b60405180910390f35b610166610474565b005b610182600480360381019061017d9190610555565b610476565b005b600460009054906101000a900473ffffffffffffffffffffffffffffffffffffffff1673ffffffffffffffffffffffffffffffffffffffff163373ffffffffffffffffffffffffffffffffffffffff1614610214576040517f08c379a000000000000000000000000000000000000000000000000000000000815260040161020b9061069a565b60405180910390fd5b80600260006101000a81548173ffffffffffffffffffffffffffffffffffffffff021916908373ffffffffffffffffffffffffffffffffffffffff16021790555050565b50565b600260009054906101000a900473ffffffffffffffffffffffffffffffffffffffff1673ffffffffffffffffffffffffffffffffffffffff1663095ea7b330836040518363ffffffff1660e01b81526004016102b892919061062c565b602060405180830381600087803b1580156102d257600080fd5b505af11580156102e6573d6000803e3d6000fd5b505050506040513d601f19601f8201168201806040525081019061030a9190610528565b5050565b50565b50565b6000803490506000811161035d576040517f08c379a0000000000000000000000000000000000000000000000000000000008152600401610354906106ba565b60405180910390fd5b60004790506000806103728484600354610479565b8093508192505050600260009054906101000a900473ffffffffffffffffffffffffffffffffffffffff1673ffffffffffffffffffffffffffffffffffffffff166323b872dd3033846040518463ffffffff1660e01b81526004016103d9939291906105f5565b602060405180830381600087803b1580156103f357600080fd5b505af1158015610407573d6000803e3d6000fd5b505050506040513d601f19601f8201168201806040525081019061042b9190610528565b507fb2ed9adc4fad3ae54d3b64b6bc7f8da5063d0d2ed0612d82d13501e661b0742833858360016040516104629493929190610655565b60405180910390a18094505050505090565b565b50565b600080600084848161048e5761048d61074e565b5b049050600091506000925084860184816104ab576104aa61074e565b5b049150818103925050935093915050565b6000813590506104cb81610820565b92915050565b6000815190506104e081610837565b92915050565b6000813590506104f58161084e565b92915050565b6000602082840312156105115761051061077d565b5b600061051f848285016104bc565b91505092915050565b60006020828403121561053e5761053d61077d565b5b600061054c848285016104d1565b91505092915050565b60006020828403121561056b5761056a61077d565b5b6000610579848285016104e6565b91505092915050565b61058b81610706565b82525050565b61059a81610718565b82525050565b60006105ad6025836106f5565b91506105b882610782565b604082019050919050565b60006105d06026836106f5565b91506105db826107d1565b604082019050919050565b6105ef81610744565b82525050565b600060608201905061060a6000830186610582565b6106176020830185610582565b61062460408301846105e6565b949350505050565b60006040820190506106416000830185610582565b61064e60208301846105e6565b9392505050565b600060808201905061066a6000830187610582565b61067760208301866105e6565b61068460408301856105e6565b6106916060830184610591565b95945050505050565b600060208201905081810360008301526106b3816105a0565b9050919050565b600060208201905081810360008301526106d3816105c3565b9050919050565b60006020820190506106ef60008301846105e6565b92915050565b600082825260208201905092915050565b600061071182610724565b9050919050565b60008115159050919050565b600073ffffffffffffffffffffffffffffffffffffffff82169050919050565b6000819050919050565b7f4e487b7100000000000000000000000000000000000000000000000000000000600052601260045260246000fd5b600080fd5b7f4f6e6c7920746865206f776e65722063616e2063616c6c20746869732066756e60008201527f6374696f6e000000000000000000000000000000000000000000000000000000602082015250565b7f45544820616d6f756e742073686f756c6420626520677265617465722074686160008201527f6e207a65726f0000000000000000000000000000000000000000000000000000602082015250565b61082981610706565b811461083457600080fd5b50565b61084081610718565b811461084b57600080fd5b50565b61085781610744565b811461086257600080fd5b5056fea2646970667358221220af031dec0339ed3c54b2cc40c03f1d10716dc4f7fda9b63ec7c0725fbb1860c664736f6c63430008060033",
  "immutableReferences": {},
  "source": "// SPDX-License-Identifier: MIT\n\npragma solidity ^0.8.6;\n\nimport \"./RToken.sol\";\n\ncontract LiquidityPool {\n\n   /**\n    * Contains the address list and the invested amount in Tokens\n    */\n   mapping(address => uint256 ) private investors;\n\n   mapping(address => uint256) private borrowers;\n\n   RToken private token;\n\n   uint256 private k; // constant product between eth and tokens\n\n   address private owner;\n\n\n   event LiquidityProvided(address _sender, uint256 _eth, uint256 _tokens, bool _eth_provided);\n\n   constructor(address _tokenAddress) payable {\n\n       require(msg.sender != 0x0000000000000000000000000000000000000000, \"Owner cannot be the NULL address\");\n       \n       owner = msg.sender;\n\n       token = RToken(_tokenAddress);\n\n       uint256 tokens = token.totalSupply();\n\n       k = tokens * msg.value;\n      \n   }\n\n   modifier onlyOwner() {\n       require(msg.sender == owner, \"Only the owner can call this function\");\n       _;\n   }\n\n   function setTokenAddress(address _tokenAddress) external onlyOwner() {\n       token = RToken(_tokenAddress);\n   }\n\n\n   function borrow(uint256 amount) external {\n\n\n\n   }\n\n   function repay(uint256 amount) external {\n\n\n   }\n\n   /**\n    * Invest the specified token and amount in this pool.\n    */\n   function invest() payable external {\n\n      \n     \n   }\n\n   /**\n    * Redeems the specified amount of tokens as ETH.\n    * This operation is possible if the caller has an account \n    * in this liquidity pool.\n    */\n   function redeem(uint256 amount) payable external {\n\n\n       \n   }\n\n\n   function borrow() payable external returns(uint256) {\n\n      uint256 eth_provided = msg.value; // amount of ETH provided\n\n      require(eth_provided > 0, \"ETH amount should be greater than zero\");\n\n      // current balance\n      uint256 eth_balance = address(this).balance;\n\n      uint256 new_token_balance;\n      uint256 token_amount;\n\n      (token_amount, new_token_balance) = _computeNewSupply(eth_provided, eth_balance, k );\n\n      token.transferFrom(address(this), msg.sender, token_amount);\n\n      emit LiquidityProvided(msg.sender, eth_provided, token_amount, true);\n\n      return token_amount;\n\n   }\n\n   function enterMarket(uint256 amount) external {\n\n       token.approve(address(this), amount);\n\n   }\n\n   function provideLiquidity(uint256 amount) payable external {\n      \n       // ...\n   }\n\n   /**\n    * Calculate new supply given the formula X*Y = C\n    * We assume dx is the increment in x supply, \n    * x0 is the current supply and c is the constant\n    * value binding x and y supplies (x*y = c)\n    * Returns the new supply and the supply increment\n    */\n   function _computeNewSupply(uint256 dx, uint256 x0, uint256 c) private pure returns(uint256 dy, uint256 y1) {\n\n       // calculate current supply of y0 from relation x*y = c\n       uint256 y0 = 0;\n       \n       unchecked {\n\n         y0 = c/x0;  \n\n       }\n       \n       // calculate new supply of y given the increment dx\n\n       y1 = 0;\n       dy = 0;\n\n       unchecked {\n\n            y1 = c/(dx + x0);\n\n            dy = y0 - y1;\n           \n       }\n       \n\n       return (dy, y1);\n\n   }\n\n\n}",
  "sourcePath": "/Users/max/Projects/RegulatedToken/contracts/LiquidityPool.sol",
  "compiler": {
    "name": "solc",
    "version": "0.8.6+commit.11564f7e.Emscripten.clang"
  },
  "schemaVersion": "3.4.1",
  "updatedAt": "2021-07-23T16:00:02.310Z",
  "networkType": "ethereum",
  "devdoc": {
    "kind": "dev",
    "methods": {},
    "version": 1
  },
  "userdoc": {
    "kind": "user",
    "methods": {
      "invest()": {
        "notice": "Invest the specified token and amount in this pool."
      },
      "redeem(uint256)": {
        "notice": "Redeems the specified amount of tokens as ETH. This operation is possible if the caller has an account  in this liquidity pool."
      }
    },
    "version": 1
  }
}