{
  "contractName": "RToken",
  "abi": [
    {
      "inputs": [],
      "stateMutability": "nonpayable",
      "type": "constructor"
    },
    {
      "anonymous": false,
      "inputs": [
        {
          "indexed": false,
          "internalType": "address",
          "name": "_address",
          "type": "address"
        }
      ],
      "name": "AddressAuthorized",
      "type": "event"
    },
    {
      "anonymous": false,
      "inputs": [
        {
          "indexed": true,
          "internalType": "address",
          "name": "owner",
          "type": "address"
        },
        {
          "indexed": true,
          "internalType": "address",
          "name": "spender",
          "type": "address"
        },
        {
          "indexed": false,
          "internalType": "uint256",
          "name": "value",
          "type": "uint256"
        }
      ],
      "name": "Approval",
      "type": "event"
    },
    {
      "anonymous": false,
      "inputs": [
        {
          "indexed": true,
          "internalType": "address",
          "name": "from",
          "type": "address"
        },
        {
          "indexed": true,
          "internalType": "address",
          "name": "to",
          "type": "address"
        },
        {
          "indexed": false,
          "internalType": "uint256",
          "name": "value",
          "type": "uint256"
        }
      ],
      "name": "Transfer",
      "type": "event"
    },
    {
      "inputs": [],
      "name": "totalSupply",
      "outputs": [
        {
          "internalType": "uint256",
          "name": "",
          "type": "uint256"
        }
      ],
      "stateMutability": "view",
      "type": "function",
      "constant": true
    },
    {
      "inputs": [
        {
          "internalType": "address",
          "name": "account",
          "type": "address"
        }
      ],
      "name": "balanceOf",
      "outputs": [
        {
          "internalType": "uint256",
          "name": "",
          "type": "uint256"
        }
      ],
      "stateMutability": "view",
      "type": "function",
      "constant": true
    },
    {
      "inputs": [
        {
          "internalType": "address",
          "name": "recipient",
          "type": "address"
        },
        {
          "internalType": "uint256",
          "name": "amount",
          "type": "uint256"
        }
      ],
      "name": "transfer",
      "outputs": [
        {
          "internalType": "bool",
          "name": "",
          "type": "bool"
        }
      ],
      "stateMutability": "nonpayable",
      "type": "function"
    },
    {
      "inputs": [
        {
          "internalType": "address",
          "name": "owner",
          "type": "address"
        },
        {
          "internalType": "address",
          "name": "spender",
          "type": "address"
        }
      ],
      "name": "allowance",
      "outputs": [
        {
          "internalType": "uint256",
          "name": "",
          "type": "uint256"
        }
      ],
      "stateMutability": "view",
      "type": "function",
      "constant": true
    },
    {
      "inputs": [
        {
          "internalType": "address",
          "name": "spender",
          "type": "address"
        },
        {
          "internalType": "uint256",
          "name": "amount",
          "type": "uint256"
        }
      ],
      "name": "approve",
      "outputs": [
        {
          "internalType": "bool",
          "name": "",
          "type": "bool"
        }
      ],
      "stateMutability": "nonpayable",
      "type": "function"
    },
    {
      "inputs": [
        {
          "internalType": "address",
          "name": "sender",
          "type": "address"
        },
        {
          "internalType": "address",
          "name": "recipient",
          "type": "address"
        },
        {
          "internalType": "uint256",
          "name": "amount",
          "type": "uint256"
        }
      ],
      "name": "transferFrom",
      "outputs": [
        {
          "internalType": "bool",
          "name": "",
          "type": "bool"
        }
      ],
      "stateMutability": "nonpayable",
      "type": "function"
    },
    {
      "inputs": [
        {
          "internalType": "uint256",
          "name": "_amount",
          "type": "uint256"
        }
      ],
      "name": "mint",
      "outputs": [],
      "stateMutability": "nonpayable",
      "type": "function"
    },
    {
      "inputs": [
        {
          "internalType": "uint256",
          "name": "_amount",
          "type": "uint256"
        }
      ],
      "name": "burn",
      "outputs": [],
      "stateMutability": "nonpayable",
      "type": "function"
    },
    {
      "inputs": [
        {
          "internalType": "address",
          "name": "_address",
          "type": "address"
        }
      ],
      "name": "authorize",
      "outputs": [],
      "stateMutability": "nonpayable",
      "type": "function"
    },
    {
      "inputs": [
        {
          "internalType": "address",
          "name": "_address",
          "type": "address"
        }
      ],
      "name": "isAuthorized",
      "outputs": [
        {
          "internalType": "bool",
          "name": "",
          "type": "bool"
        }
      ],
      "stateMutability": "view",
      "type": "function",
      "constant": true
    }
  ],
  "bytecode": "0x60806040523480156200001157600080fd5b506040518060400160405280600681526020017f52546f6b656e0000000000000000000000000000000000000000000000000000815250600090805190602001906200005f92919062000143565b506040518060400160405280600381526020017f52544b000000000000000000000000000000000000000000000000000000000081525060019080519060200190620000ad92919062000143565b5033600360006101000a81548173ffffffffffffffffffffffffffffffffffffffff021916908373ffffffffffffffffffffffffffffffffffffffff1602179055506064600281905550600254600460003373ffffffffffffffffffffffffffffffffffffffff1673ffffffffffffffffffffffffffffffffffffffff1681526020019081526020016000208190555062000258565b8280546200015190620001f3565b90600052602060002090601f016020900481019282620001755760008555620001c1565b82601f106200019057805160ff1916838001178555620001c1565b82800160010185558215620001c1579182015b82811115620001c0578251825591602001919060010190620001a3565b5b509050620001d09190620001d4565b5090565b5b80821115620001ef576000816000905550600101620001d5565b5090565b600060028204905060018216806200020c57607f821691505b6020821081141562000223576200022262000229565b5b50919050565b7f4e487b7100000000000000000000000000000000000000000000000000000000600052602260045260246000fd5b6115fe80620002686000396000f3fe608060405234801561001057600080fd5b506004361061009e5760003560e01c8063a0712d6811610066578063a0712d681461016d578063a9059cbb14610189578063b6a5d7de146101b9578063dd62ed3e146101d5578063fe9fbb80146102055761009e565b8063095ea7b3146100a357806318160ddd146100d357806323b872dd146100f157806342966c681461012157806370a082311461013d575b600080fd5b6100bd60048036038101906100b89190610f08565b610235565b6040516100ca91906110d5565b60405180910390f35b6100db610349565b6040516100e891906111f0565b60405180910390f35b61010b60048036038101906101069190610eb5565b610353565b60405161011891906110d5565b60405180910390f35b61013b60048036038101906101369190610f48565b61063c565b005b61015760048036038101906101529190610e48565b6107f5565b60405161016491906111f0565b60405180910390f35b61018760048036038101906101829190610f48565b61083e565b005b6101a3600480360381019061019e9190610f08565b610954565b6040516101b091906110d5565b60405180910390f35b6101d360048036038101906101ce9190610e48565b610af4565b005b6101ef60048036038101906101ea9190610e75565b610ca9565b6040516101fc91906111f0565b60405180910390f35b61021f600480360381019061021a9190610e48565b610d30565b60405161022c91906110d5565b60405180910390f35b600080600460003373ffffffffffffffffffffffffffffffffffffffff1673ffffffffffffffffffffffffffffffffffffffff168152602001908152602001600020549050828110156102bd576040517f08c379a00000000000000000000000000000000000000000000000000000000081526004016102b4906111d0565b60405180910390fd5b82600560003373ffffffffffffffffffffffffffffffffffffffff1673ffffffffffffffffffffffffffffffffffffffff16815260200190815260200160002060008673ffffffffffffffffffffffffffffffffffffffff1673ffffffffffffffffffffffffffffffffffffffff16815260200190815260200160002081905550600191505092915050565b6000600254905090565b6000610360848484610d86565b6000600560008673ffffffffffffffffffffffffffffffffffffffff1673ffffffffffffffffffffffffffffffffffffffff16815260200190815260200160002060008573ffffffffffffffffffffffffffffffffffffffff1673ffffffffffffffffffffffffffffffffffffffff16815260200190815260200160002054905080831115610424576040517f08c379a000000000000000000000000000000000000000000000000000000000815260040161041b90611110565b60405180910390fd5b6000600460008773ffffffffffffffffffffffffffffffffffffffff1673ffffffffffffffffffffffffffffffffffffffff168152602001908152602001600020549050808411156104ab576040517f08c379a00000000000000000000000000000000000000000000000000000000081526004016104a290611130565b60405180910390fd5b838103600460008873ffffffffffffffffffffffffffffffffffffffff1673ffffffffffffffffffffffffffffffffffffffff1681526020019081526020016000208190555083600460008773ffffffffffffffffffffffffffffffffffffffff1673ffffffffffffffffffffffffffffffffffffffff1681526020019081526020016000206000828254610540919061121c565b92505081905550838203600560008873ffffffffffffffffffffffffffffffffffffffff1673ffffffffffffffffffffffffffffffffffffffff16815260200190815260200160002060008773ffffffffffffffffffffffffffffffffffffffff1673ffffffffffffffffffffffffffffffffffffffff168152602001908152602001600020819055508473ffffffffffffffffffffffffffffffffffffffff168673ffffffffffffffffffffffffffffffffffffffff167fddf252ad1be2c89b69c2b068fc378daa952ba7f163c4a11628f55a4df523b3ef8660405161062791906111f0565b60405180910390a36001925050509392505050565b600360009054906101000a900473ffffffffffffffffffffffffffffffffffffffff1673ffffffffffffffffffffffffffffffffffffffff163373ffffffffffffffffffffffffffffffffffffffff16146106cc576040517f08c379a00000000000000000000000000000000000000000000000000000000081526004016106c3906111b0565b60405180910390fd5b600060046000600360009054906101000a900473ffffffffffffffffffffffffffffffffffffffff1673ffffffffffffffffffffffffffffffffffffffff1673ffffffffffffffffffffffffffffffffffffffff16815260200190815260200160002054905080821115610775576040517f08c379a000000000000000000000000000000000000000000000000000000000815260040161076c906110f0565b60405180910390fd5b8160025403600281905550818161078c9190611272565b60046000600360009054906101000a900473ffffffffffffffffffffffffffffffffffffffff1673ffffffffffffffffffffffffffffffffffffffff1673ffffffffffffffffffffffffffffffffffffffff168152602001908152602001600020819055505050565b6000600460008373ffffffffffffffffffffffffffffffffffffffff1673ffffffffffffffffffffffffffffffffffffffff168152602001908152602001600020549050919050565b600360009054906101000a900473ffffffffffffffffffffffffffffffffffffffff1673ffffffffffffffffffffffffffffffffffffffff163373ffffffffffffffffffffffffffffffffffffffff16146108ce576040517f08c379a00000000000000000000000000000000000000000000000000000000081526004016108c5906111b0565b60405180910390fd5b60025481016002819055508060046000600360009054906101000a900473ffffffffffffffffffffffffffffffffffffffff1673ffffffffffffffffffffffffffffffffffffffff1673ffffffffffffffffffffffffffffffffffffffff168152602001908152602001600020600082825461094a919061121c565b9250508190555050565b6000610961338484610d86565b6000600460003373ffffffffffffffffffffffffffffffffffffffff1673ffffffffffffffffffffffffffffffffffffffff168152602001908152602001600020549050808311156109e8576040517f08c379a00000000000000000000000000000000000000000000000000000000081526004016109df90611190565b60405180910390fd5b828103600460003373ffffffffffffffffffffffffffffffffffffffff1673ffffffffffffffffffffffffffffffffffffffff1681526020019081526020016000208190555082600460008673ffffffffffffffffffffffffffffffffffffffff1673ffffffffffffffffffffffffffffffffffffffff1681526020019081526020016000206000828254610a7d919061121c565b925050819055508373ffffffffffffffffffffffffffffffffffffffff163373ffffffffffffffffffffffffffffffffffffffff167fddf252ad1be2c89b69c2b068fc378daa952ba7f163c4a11628f55a4df523b3ef85604051610ae191906111f0565b60405180910390a3600191505092915050565b600360009054906101000a900473ffffffffffffffffffffffffffffffffffffffff1673ffffffffffffffffffffffffffffffffffffffff163373ffffffffffffffffffffffffffffffffffffffff1614610b84576040517f08c379a0000000000000000000000000000000000000000000000000000000008152600401610b7b906111b0565b60405180910390fd5b60001515600660008373ffffffffffffffffffffffffffffffffffffffff1673ffffffffffffffffffffffffffffffffffffffff16815260200190815260200160002060009054906101000a900460ff16151514610c17576040517f08c379a0000000000000000000000000000000000000000000000000000000008152600401610c0e90611150565b60405180910390fd5b6001600660008373ffffffffffffffffffffffffffffffffffffffff1673ffffffffffffffffffffffffffffffffffffffff16815260200190815260200160002060006101000a81548160ff0219169083151502179055507faa4a1856deca699ff17682b11b9090fe141669ccd7c1951ab8605ad8c9ab177581604051610c9e91906110ba565b60405180910390a150565b6000600560008473ffffffffffffffffffffffffffffffffffffffff1673ffffffffffffffffffffffffffffffffffffffff16815260200190815260200160002060008373ffffffffffffffffffffffffffffffffffffffff1673ffffffffffffffffffffffffffffffffffffffff16815260200190815260200160002054905092915050565b6000600660008373ffffffffffffffffffffffffffffffffffffffff1673ffffffffffffffffffffffffffffffffffffffff16815260200190815260200160002060009054906101000a900460ff169050919050565b60011515600660008473ffffffffffffffffffffffffffffffffffffffff1673ffffffffffffffffffffffffffffffffffffffff16815260200190815260200160002060009054906101000a900460ff16151514610e19576040517f08c379a0000000000000000000000000000000000000000000000000000000008152600401610e1090611170565b60405180910390fd5b505050565b600081359050610e2d8161159a565b92915050565b600081359050610e42816115b1565b92915050565b600060208284031215610e5e57610e5d61131d565b5b6000610e6c84828501610e1e565b91505092915050565b60008060408385031215610e8c57610e8b61131d565b5b6000610e9a85828601610e1e565b9250506020610eab85828601610e1e565b9150509250929050565b600080600060608486031215610ece57610ecd61131d565b5b6000610edc86828701610e1e565b9350506020610eed86828701610e1e565b9250506040610efe86828701610e33565b9150509250925092565b60008060408385031215610f1f57610f1e61131d565b5b6000610f2d85828601610e1e565b9250506020610f3e85828601610e33565b9150509250929050565b600060208284031215610f5e57610f5d61131d565b5b6000610f6c84828501610e33565b91505092915050565b610f7e816112a6565b82525050565b610f8d816112b8565b82525050565b6000610fa060318361120b565b9150610fab82611322565b604082019050919050565b6000610fc360308361120b565b9150610fce82611371565b604082019050919050565b6000610fe660268361120b565b9150610ff1826113c0565b604082019050919050565b6000611009601a8361120b565b91506110148261140f565b602082019050919050565b600061102c60498361120b565b915061103782611438565b606082019050919050565b600061104f60328361120b565b915061105a826114ad565b604082019050919050565b6000611072602c8361120b565b915061107d826114fc565b604082019050919050565b6000611095602b8361120b565b91506110a08261154b565b604082019050919050565b6110b4816112e4565b82525050565b60006020820190506110cf6000830184610f75565b92915050565b60006020820190506110ea6000830184610f84565b92915050565b6000602082019050818103600083015261110981610f93565b9050919050565b6000602082019050818103600083015261112981610fb6565b9050919050565b6000602082019050818103600083015261114981610fd9565b9050919050565b6000602082019050818103600083015261116981610ffc565b9050919050565b600060208201905081810360008301526111898161101f565b9050919050565b600060208201905081810360008301526111a981611042565b9050919050565b600060208201905081810360008301526111c981611065565b9050919050565b600060208201905081810360008301526111e981611088565b9050919050565b600060208201905061120560008301846110ab565b92915050565b600082825260208201905092915050565b6000611227826112e4565b9150611232836112e4565b9250827fffffffffffffffffffffffffffffffffffffffffffffffffffffffffffffffff03821115611267576112666112ee565b5b828201905092915050565b600061127d826112e4565b9150611288836112e4565b92508282101561129b5761129a6112ee565b5b828203905092915050565b60006112b1826112c4565b9050919050565b60008115159050919050565b600073ffffffffffffffffffffffffffffffffffffffff82169050919050565b6000819050919050565b7f4e487b7100000000000000000000000000000000000000000000000000000000600052601160045260246000fd5b600080fd5b7f43616e6e6f7420646563726561736520737570706c79206265796f6e6420697360008201527f73756572206f776e656420616d6f756e74000000000000000000000000000000602082015250565b7f52657175657374696e6720616e206d6f756e742067726561746572207468616e60008201527f2074686520616c6c6f776564206f6e6500000000000000000000000000000000602082015250565b7f5468652073656e64657220646f6573206e6f74206861766520656e6f7567682060008201527f746f6b656e730000000000000000000000000000000000000000000000000000602082015250565b7f4164647265737320616c726561647920617574686f72697a6564000000000000600082015250565b7f5468652072656365697665722061646472657373206973206e6f74206175746860008201527f6f72697a656420746f207265636569766520746f6b656e732066726f6d20746860208201527f69732073656e6465720000000000000000000000000000000000000000000000604082015250565b7f54686520616d6f756e742072657175657374656420657863656564732074686560008201527f20617661696c61626c652062616c616e63650000000000000000000000000000602082015250565b7f4f6e6c792074686520746f6b656e206973737565722063616e2063616c6c207460008201527f6869732066756e6374696f6e0000000000000000000000000000000000000000602082015250565b7f43616e6e6f7420617070726f7665206d6f726520746f6b656e73207468616e2060008201527f74686f7365206f776e6564000000000000000000000000000000000000000000602082015250565b6115a3816112a6565b81146115ae57600080fd5b50565b6115ba816112e4565b81146115c557600080fd5b5056fea26469706673582212203a1c8acbc2babd428b8e78fcc24c9841ffc6f4a08e87285f4396c3145446ee2c64736f6c63430008060033",
  "immutableReferences": {},
  "source": "// SPDX-License-Identifier: MIT\n\npragma solidity ^0.8.0;\n\nimport \"./IERC20.sol\";\n\n/**\n * @dev Implementation of the {IERC20} interface.\n *\n * This implementation is agnostic to the way tokens are created. This means\n * that a supply mechanism has to be added in a derived contract using {_mint}.\n * For a generic mechanism see {ERC20PresetMinterPauser}.\n *\n * TIP: For a detailed writeup see our guide\n * https://forum.zeppelin.solutions/t/how-to-implement-erc20-supply-mechanisms/226[How\n * to implement supply mechanisms].\n *\n * We have followed general OpenZeppelin guidelines: functions revert instead\n * of returning `false` on failure. This behavior is nonetheless conventional\n * and does not conflict with the expectations of ERC20 applications.\n *\n * Additionally, an {Approval} event is emitted on calls to {transferFrom}.\n * This allows applications to reconstruct the allowance for all accounts just\n * by listening to said events. Other implementations of the EIP may not emit\n * these events, as it isn't required by the specification.\n *\n * Finally, the non-standard {decreaseAllowance} and {increaseAllowance}\n * functions have been added to mitigate the well-known issues around setting\n * allowances. See {IERC20-approve}.\n */\n contract RToken is IERC20 {\n\n    string private name;\n\n    string private symbol;\n\n    uint256 private total_supply;\n\n    address private issuer;\n\n    mapping(address => uint256) private balances;\n\n    mapping(address => mapping( address => uint256)) private allowances;\n\n    mapping(address => bool) private authorized;\n\n    event AddressAuthorized(address _address);\n\n    modifier onlyIssuer() {\n\n        require(msg.sender == issuer, \"Only the token issuer can call this function\");\n        _;\n    }\n\n     constructor() {\n\n         name = \"RToken\";\n         symbol = \"RTK\";\n         issuer = msg.sender;\n         total_supply = uint256(100);\n         balances[msg.sender] = total_supply; // the whole supply goes to the issuer at the very beginning\n     }\n\n    /**\n     * @dev Returns the amount of tokens in existence.\n     */\n    function totalSupply() external view override returns (uint256) {\n        \n        return total_supply;\n    }\n\n    /**\n     * @dev Returns the amount of tokens owned by `account`.\n     */\n    function balanceOf(address account) external view override returns (uint256) {\n\n        return balances[account];\n    }\n\n    /**\n     * @dev Moves `amount` tokens from the caller's account to `recipient`.\n     *\n     * Returns a boolean value indicating whether the operation succeeded.\n     *\n     * Emits a {Transfer} event.\n     */\n    function transfer(address recipient, uint256 amount) external override returns (bool) {\n\n        // Here I will check if the recipient is in the list of the allowed recipients \n        _preTransfer(msg.sender, recipient, amount);\n\n        uint256 avail_amount = balances[msg.sender];\n\n        require( amount <= avail_amount, \"The amount requested exceeds the available balance\");\n\n        \n\n        unchecked {\n\n            balances[msg.sender] = avail_amount - amount;\n            \n        }\n        \n        balances[recipient] += amount;\n\n        emit Transfer(msg.sender, recipient, amount);\n\n        return true;\n\n    }\n\n    /**\n     * @dev Returns the remaining number of tokens that `spender` will be\n     * allowed to spend on behalf of `owner` through {transferFrom}. This is\n     * zero by default.\n     *\n     * This value changes when {approve} or {transferFrom} are called.\n     */\n    function allowance(address owner, address spender) external view override returns (uint256) {\n\n\n        return allowances[owner][spender];\n\n    }\n\n    /**\n     * @dev Sets `amount` as the allowance of `spender` over the caller's tokens.\n     *\n     * Returns a boolean value indicating whether the operation succeeded.\n     *\n     * IMPORTANT: Beware that changing an allowance with this method brings the risk\n     * that someone may use both the old and the new allowance by unfortunate\n     * transaction ordering. One possible solution to mitigate this race\n     * condition is to first reduce the spender's allowance to 0 and set the\n     * desired value afterwards:\n     * https://github.com/ethereum/EIPs/issues/20#issuecomment-263524729\n     *\n     * Emits an {Approval} event.\n     */\n    function approve(address spender, uint256 amount) external override returns (bool) {\n\n        uint256 caller_amount = balances[msg.sender];\n\n        require(caller_amount >= amount, \"Cannot approve more tokens than those owned\");\n\n        allowances[msg.sender][spender] = amount; // the amount is SET, not increased.\n\n        return true;\n\n    }\n\n    /**\n     * @dev Moves `amount` tokens from `sender` to `recipient` using the\n     * allowance mechanism. `amount` is then deducted from the caller's\n     * allowance.\n     *\n     * Returns a boolean value indicating whether the operation succeeded.\n     *\n     * Emits a {Transfer} event.\n     */\n    function transferFrom(\n        address sender,\n        address recipient,\n        uint256 amount\n    ) external override returns (bool) {\n\n        _preTransfer(sender, recipient, amount);\n\n        uint256 allowed_amount = allowances[sender][recipient];\n\n        require(amount <= allowed_amount, \"Requesting an mount greater than the allowed one\");\n\n        uint256 sender_amount = balances[sender];\n\n        require(amount <= sender_amount, \"The sender does not have enough tokens\");\n\n        unchecked {\n\n            balances[sender] = sender_amount - amount;\n    \n        }\n\n        balances[recipient] += amount;\n\n        unchecked {\n            \n            allowances[sender][recipient] = allowed_amount - amount;\n        }\n        \n        emit Transfer(sender, recipient, amount);\n\n        return true;\n\n    }\n\n\n    function mint(uint256 _amount) external onlyIssuer() {\n\n        unchecked {\n            total_supply = _amount + total_supply;\n        }\n\n        balances[issuer] += _amount; // add the new minted tokens to the issuer balances\n\n    }\n\n    function burn(uint256 _amount) external onlyIssuer() {\n\n\n        uint256 issuer_amount = balances[issuer];\n\n        require(_amount <= issuer_amount, \"Cannot decrease supply beyond issuer owned amount\");\n\n        unchecked {\n            total_supply = total_supply - _amount;\n        }\n\n        balances[issuer] = issuer_amount - _amount;\n\n    }\n\n    function authorize(address _address) external onlyIssuer() {\n\n        require(authorized[_address] == false, \"Address already authorized\");\n\n        authorized[_address] = true;\n\n        emit AddressAuthorized(_address);\n\n    }\n\n\n    function isAuthorized(address _address) external view returns (bool) {\n\n        return authorized[_address];\n    }\n\n    function _preTransfer(address sender, address receiver, uint256 amount) view internal {\n        \n        // check if the receiver is authorized to receive the money\n        require( authorized[receiver] == true, \"The receiver address is not authorized to receive tokens from this sender\");\n\n    }\n\n}",
  "sourcePath": "/Users/max/Projects/RegulatedToken/contracts/RToken.sol",
  "compiler": {
    "name": "solc",
    "version": "0.8.6+commit.11564f7e.Emscripten.clang"
  },
  "schemaVersion": "3.4.1",
  "updatedAt": "2021-07-13T18:57:39.925Z",
  "networkType": "ethereum",
  "devdoc": {
    "details": "Implementation of the {IERC20} interface. This implementation is agnostic to the way tokens are created. This means that a supply mechanism has to be added in a derived contract using {_mint}. For a generic mechanism see {ERC20PresetMinterPauser}. TIP: For a detailed writeup see our guide https://forum.zeppelin.solutions/t/how-to-implement-erc20-supply-mechanisms/226[How to implement supply mechanisms]. We have followed general OpenZeppelin guidelines: functions revert instead of returning `false` on failure. This behavior is nonetheless conventional and does not conflict with the expectations of ERC20 applications. Additionally, an {Approval} event is emitted on calls to {transferFrom}. This allows applications to reconstruct the allowance for all accounts just by listening to said events. Other implementations of the EIP may not emit these events, as it isn't required by the specification. Finally, the non-standard {decreaseAllowance} and {increaseAllowance} functions have been added to mitigate the well-known issues around setting allowances. See {IERC20-approve}.",
    "kind": "dev",
    "methods": {
      "allowance(address,address)": {
        "details": "Returns the remaining number of tokens that `spender` will be allowed to spend on behalf of `owner` through {transferFrom}. This is zero by default. This value changes when {approve} or {transferFrom} are called."
      },
      "approve(address,uint256)": {
        "details": "Sets `amount` as the allowance of `spender` over the caller's tokens. Returns a boolean value indicating whether the operation succeeded. IMPORTANT: Beware that changing an allowance with this method brings the risk that someone may use both the old and the new allowance by unfortunate transaction ordering. One possible solution to mitigate this race condition is to first reduce the spender's allowance to 0 and set the desired value afterwards: https://github.com/ethereum/EIPs/issues/20#issuecomment-263524729 Emits an {Approval} event."
      },
      "balanceOf(address)": {
        "details": "Returns the amount of tokens owned by `account`."
      },
      "totalSupply()": {
        "details": "Returns the amount of tokens in existence."
      },
      "transfer(address,uint256)": {
        "details": "Moves `amount` tokens from the caller's account to `recipient`. Returns a boolean value indicating whether the operation succeeded. Emits a {Transfer} event."
      },
      "transferFrom(address,address,uint256)": {
        "details": "Moves `amount` tokens from `sender` to `recipient` using the allowance mechanism. `amount` is then deducted from the caller's allowance. Returns a boolean value indicating whether the operation succeeded. Emits a {Transfer} event."
      }
    },
    "version": 1
  },
  "userdoc": {
    "kind": "user",
    "methods": {},
    "version": 1
  }
}